:020000000328D3
:1000060083128E018F01900191018316860183125E
:100016008601831685018312850190019101803046
:100026001106C00080304002031D1B280630100256
:10003600031849281008850005128E018F018030AB
:100046000F06C00080304002031D2B280A300E0226
:1000560003184528861F3C280E0886008230CC00EF
:10006600DD30CD00CD0B3528CC0B35280000000047
:10007600412806088E008F010E0886008E0A031995
:100086008F0A2228900A0319910A122885018230C4
:10009600CC00DD30CD00CD0B4E28CC0B4E28000019
:0600A6000000102855289F
:02400E00FA3F77
:00000001FF
